{
    "contractName": "FundMe",
    "abi": [
        {
            "inputs": [],
            "stateMutability": "nonpayable",
            "type": "constructor"
        },
        {
            "inputs": [],
            "name": "NotOwner",
            "type": "error"
        },
        {
            "stateMutability": "payable",
            "type": "fallback"
        },
        {
            "inputs": [],
            "name": "MINIMUM_USD",
            "outputs": [
                {
                    "internalType": "uint256",
                    "name": "",
                    "type": "uint256"
                }
            ],
            "stateMutability": "view",
            "type": "function"
        },
        {
            "inputs": [
                {
                    "internalType": "address",
                    "name": "",
                    "type": "address"
                }
            ],
            "name": "addressToAmountFunded",
            "outputs": [
                {
                    "internalType": "uint256",
                    "name": "",
                    "type": "uint256"
                }
            ],
            "stateMutability": "view",
            "type": "function"
        },
        {
            "inputs": [],
            "name": "fund",
            "outputs": [],
            "stateMutability": "payable",
            "type": "function"
        },
        {
            "inputs": [
                {
                    "internalType": "uint256",
                    "name": "",
                    "type": "uint256"
                }
            ],
            "name": "funders",
            "outputs": [
                {
                    "internalType": "address",
                    "name": "",
                    "type": "address"
                }
            ],
            "stateMutability": "view",
            "type": "function"
        },
        {
            "inputs": [],
            "name": "getVersion",
            "outputs": [
                {
                    "internalType": "uint256",
                    "name": "",
                    "type": "uint256"
                }
            ],
            "stateMutability": "view",
            "type": "function"
        },
        {
            "inputs": [],
            "name": "i_owner",
            "outputs": [
                {
                    "internalType": "address",
                    "name": "",
                    "type": "address"
                }
            ],
            "stateMutability": "view",
            "type": "function"
        },
        {
            "inputs": [],
            "name": "withdraw",
            "outputs": [],
            "stateMutability": "nonpayable",
            "type": "function"
        },
        {
            "stateMutability": "payable",
            "type": "receive"
        }
    ],
    "bytecode": "608060405234801561001057600080fd5b50600280546001600160a01b03191633179055610722806100326000396000f3fe6080604052600436106100745760003560e01c80636b69a5921161004e5780636b69a592146100f5578063b60d428814610083578063dba6335f14610111578063dc0d3dff1461014957610083565b80630d8e6e2c1461008b5780633ccfd60b146100b35780633e47d6f3146100c857610083565b3661008357610081610169565b005b610081610169565b34801561009757600080fd5b506100a0610235565b6040519081526020015b60405180910390f35b3480156100bf57600080fd5b506100816102b7565b3480156100d457600080fd5b506100a06100e3366004610554565b60006020819052908152604090205481565b34801561010157600080fd5b506100a0674563918244f4000081565b34801561011d57600080fd5b50600254610131906001600160a01b031681565b6040516001600160a01b0390911681526020016100aa565b34801561015557600080fd5b50610131610164366004610584565b6103e0565b674563918244f4000061017b3461040a565b10156101ce5760405162461bcd60e51b815260206004820152601b60248201527f596f75206e65656420746f207370656e64206d6f72652045544821000000000060448201526064015b60405180910390fd5b33600090815260208190526040812080543492906101ed9084906105b3565b90915550506001805480820182556000919091527fb10e2d527612073b26eecdfd717e6a320cf44b4afac2b0732d9fcbe2b7fa0cf60180546001600160a01b03191633179055565b60008073694aa1769357215de4fac081bf1f309adc3253069050806001600160a01b03166354fd4d506040518163ffffffff1660e01b8152600401602060405180830381865afa15801561028d573d6000803e3d6000fd5b505050506040513d601f19601f820116820180604052508101906102b191906105cc565b91505090565b6002546001600160a01b031633146102e2576040516330cd747160e01b815260040160405180910390fd5b60005b60015481101561033857600060018281548110610304576103046105e5565b60009182526020808320909101546001600160a01b0316825281905260408120555080610330816105fb565b9150506102e5565b506040805160008152602081019182905251610356916001916104da565b50604051600090339047908381818185875af1925050503d8060008114610399576040519150601f19603f3d011682016040523d82523d6000602084013e61039e565b606091505b50509050806103dd5760405162461bcd60e51b815260206004820152600b60248201526a10d85b1b0819985a5b195960aa1b60448201526064016101c5565b50565b600181815481106103f057600080fd5b6000918252602090912001546001600160a01b0316905081565b60008061041561043e565b90506000670de0b6b3a764000061042c8584610614565b610436919061062b565b949350505050565b60008073694aa1769357215de4fac081bf1f309adc32530690506000816001600160a01b031663feaf968c6040518163ffffffff1660e01b815260040160a060405180830381865afa158015610498573d6000803e3d6000fd5b505050506040513d601f19601f820116820180604052508101906104bc919061066c565b505050915050806402540be4006104d391906106bc565b9250505090565b82805482825590600052602060002090810192821561052f579160200282015b8281111561052f57825182546001600160a01b0319166001600160a01b039091161782556020909201916001909101906104fa565b5061053b92915061053f565b5090565b5b8082111561053b5760008155600101610540565b60006020828403121561056657600080fd5b81356001600160a01b038116811461057d57600080fd5b9392505050565b60006020828403121561059657600080fd5b5035919050565b634e487b7160e01b600052601160045260246000fd5b808201808211156105c6576105c661059d565b92915050565b6000602082840312156105de57600080fd5b5051919050565b634e487b7160e01b600052603260045260246000fd5b60006001820161060d5761060d61059d565b5060010190565b80820281158282048414176105c6576105c661059d565b60008261064857634e487b7160e01b600052601260045260246000fd5b500490565b805169ffffffffffffffffffff8116811461066757600080fd5b919050565b600080600080600060a0868803121561068457600080fd5b61068d8661064d565b94506020860151935060408601519250606086015191506106b06080870161064d565b90509295509295909350565b80820260008212600160ff1b841416156106d8576106d861059d565b81810583148215176105c6576105c661059d56fea2646970667358221220fa33a643e2c3f717851463a86e420a50487d4c6af61b5d1ead36d32efd909fb364736f6c63430008130033",
    "sourcePath": "/home/getgud/foundry-fund-me-f23/src/FundMe.sol",
    "compiler": {
        "name": "solc",
        "version": "0.8.19+commit.7dd6d404"
    },
    "functionHashes": {
        "MINIMUM_USD()": "6b69a592",
        "addressToAmountFunded(address)": "3e47d6f3",
        "fund()": "b60d4288",
        "funders(uint256)": "dc0d3dff",
        "getVersion()": "0d8e6e2c",
        "i_owner()": "dba6335f",
        "withdraw()": "3ccfd60b"
    },
    "gasEstimates": {
        "creation": {
            "codeDepositCost": "365200",
            "executionCost": "24640",
            "totalCost": "389840"
        },
        "external": {
            "": "infinite",
            "MINIMUM_USD()": "184",
            "addressToAmountFunded(address)": "2521",
            "fund()": "infinite",
            "funders(uint256)": "4680",
            "getVersion()": "infinite",
            "i_owner()": "2381",
            "withdraw()": "infinite"
        }
    }
}